S00A000042372E73726563A1
S11300004CC0000052C0000050C000004EC00000B0
S11300104CC000004AC0000048C0000046C00000B8
S113002044C0000042C0000040C000003EC00000C8
S11300303CC000003AC0000038C0000036C00000D8
S113004034C0000032C0000030C000002EC00000E8
S11300502CC000002AC0000028C0000026C00000F8
S113006024C0000022C0000020C000001EC0000008
S11300701CC000001AC0000018C0000016C0000018
S113008014C0000012C0000010C000006E00710017
S113009076007B00800085008A0011241FBECFEF0C
S11300A0D0E1DEBFCDBF3BD04FC0AACF1816190692
S11300B06CF420E030E0EFECF7E03197F1F700C0AA
S11300C000002F5F3F4F82179307A9F708958730E9
S11300D0910520F5FC01EA5BFF4F2DC01ABA1BBA4B
S11300E0089583E08ABB81E08BBB089583E08ABBDB
S11300F082E08BBB089586E08ABB82E08BBB0895C7
S113010086E08ABB84E08BBB089585E08ABB84E0EB
S11301108BBB089585E08ABB81E08BBB0895C0E06A
S1130120D0E0CE01D4DF84EF91E0C0DF2196C73068
S1130130D105B9F7F4CFEE0FFF1F0024001C0BBE4E
S10F01400790F691E02D0994F894FFCF8D
S9030000FC
